:100000000C9413010C943B010C943B010C943B01A8
:100010000C943B010C943B010C943B010C943B0170
:100020000C943B010C943B010C9452020C94F7028B
:100030000C943B010C943B010C943B010C943B0150
:100040000C943B010C943B010C943B010C943B0140
:100050000C943B010C943B010C943B010C94080262
:100060000C943B010C943B010C943B010C943B0120
:100070000C943B010C943B010C943B010C943B0110
:100080000C943B010C943B010C943B010C943B0100
:100090000C943B010C943B010C943B010C943B01F0
:1000A0000C943B010C943B010C943B01080B0002A7
:1000B0000202010009040000010202000005240000
:1000C0001001052401010104240206052406000193
:1000D0000705810310004009040100020A00000026
:1000E00007050202400000070583024000000403E8
:1000F000090412010002EF02014041233680000191
:100100000102030141726475696E6F204C4C43001B
:1001100041726475696E6F204C656F6E6172646FB9
:100120000005010902A10185010509190129081528
:100130000025019508750181020501093009310981
:10014000381581257F750895038106C005010906CC
:10015000A1018502050719E029E7150025017501B0
:1001600095088102050C95017508150026FF0019F8
:100170000029FF8100050795067508150026E70090
:10018000190029E78100C000000000000000002ADB
:100190002B2800000000000000000000000000000C
:1001A000000000000000002C9EB4A0A1A2A434A670
:1001B000A7A5AE362D3738271E1F20212223242540
:1001C00026B333B62EB7B89F8485868788898A8BF5
:1001D0008C8D8E8F909192939495969798999A9BE7
:1001E0009C9D2F3130A3AD350405060708090A0B85
:1001F0000C0D0E0F101112131415161718191A1BC7
:100200001C1DAFB1B0B50006C0FF0A000CA10175FE
:1002100008150026FF0095800901810295800902DA
:100220009102C000D00A11241FBECFEFDAE0DEBF7A
:10023000CDBF11E0A0E0B1E0EAE5FBE102C005902E
:100240000D92A038B107D9F723E0A0E8B1E001C0D2
:100250001D92AA3EB207E1F711E0C3E1D1E004C06C
:100260002197FE010E94A00DC231D107C9F70E945B
:10027000BD0B0C94AB0D0C940000CF93DF9300D01A
:1002800000D0CDB7DEB7E8EAF3E0928199838A83A4
:100290006B834C830190F081E02D0190F081E02D83
:1002A00044E050E0BE016F5F7F4F88EA93E009951C
:1002B0000F900F900F900F90DF91CF910895909134
:1002C000AA03891739F08093AA0340E060E080E038
:1002D0000C943D0108953FB7F894809123039091C9
:1002E0002403A0912503B091260326B5A89B05C041
:1002F0002F3F19F00196A11DB11D3FBFBA2FA92FA5
:10030000982F8827820F911DA11DB11DBC01CD0121
:1003100042E0660F771F881F991F4A95D1F708950D
:100320000E94A60D0F931F93CF93DF931F92CDB71B
:10033000DEB782E0898342E450E06CEA70E080E856
:100340000E948D080E94E909DC0112960D911C9112
:1003500013970115110569F0D801ED91FC91028008
:10036000F381E02DBE016F5F7F4FC801099597FFB4
:1003700007C089810F90DF91CF911F910F91089550
:10038000F80100851185E5CFCF92DF92EF92FF92C1
:100390000E946B016B017C010E946B01DC01CB01AF
:1003A0008C199D09AE09BF09883E9340A105B1058E
:1003B00098F3FF90EF90DF90CF900895FC0180912B
:1003C0008701811103C08FEF9FEF08959FB7F894C5
:1003D00082E08093E9002091F20030E012161306CB
:1003E00014F421E030E02115310559F0289884E615
:1003F000809386018091F10080838091F2008823B0
:1004000019F09FBFC90108958BE68093E800F9CFEA
:100410001F920F920FB60F9211242F933F938F9339
:100420009F93AF93BF9380911F0390912003A0915E
:100430002103B091220330911E0323E0230F2D37B7
:1004400020F40196A11DB11D05C026E8230F0296D8
:10045000A11DB11D20931E0380931F0390932003C1
:10046000A0932103B093220380912303909124034E
:10047000A0912503B09126030196A11DB11D809383
:10048000230390932403A0932503B0932603BF91E5
:10049000AF919F918F913F912F910F900FBE0F9031
:1004A0001F9018951F920F920FB60F9211248F93E1
:1004B0009F938091E1009091E100937F9093E10000
:1004C00083FF0FC01092E90091E09093EB0010922F
:1004D000EC0092E39093ED001092870198E09093E6
:1004E000F00082FF20C093E09093E9009091F20029
:1004F000992319F09AE39093E8009091840199234D
:1005000039F090918401915090938401992389F15D
:1005100090918601992339F09091860191509093A2
:100520008601992341F184FF10C08091E2008E7E04
:1005300081608093E2008091E1008F7E8093E100F2
:10054000809185018E7E806111C080FF16C08091F0
:10055000E2008E7E80618093E2008091E1008E7ED9
:100560008093E100809185018E7E8160809385017A
:1005700004C05D9ACDCF289AD6CF9F918F910F90CE
:100580000FBE0F901F901895BF92CF92DF92EF92FF
:10059000FF920F931F93CF93DF936C018B01EB01BD
:1005A0009BEFB92E2097C1F07E01C134D1051CF01C
:1005B00080E4E82EF12C8091E80082FFFCCFC80196
:1005C0008C1B9D0B6E2D8C0D9D1D0E94A009B09261
:1005D000E800CE19DF09E6CFC801DF91CF911F9166
:1005E0000F91FF90EF90DF90CF90BF9008951F92F2
:1005F0000F920FB60F921124CF92DF92EF92FF92DB
:100600000F931F932F933F934F935F936F937F931A
:100610008F939F93AF93BF93EF93FF93CF93DF930A
:10062000CDB7DEB76C97DEBFCDBF1092E9008091E9
:10063000E80083FFE7C168E0CE0145960E94A0096B
:1006400082EF8093E8008D8987FF05C09091E800D4
:1006500090FFFCCF03C09EEF9093E800982F907618
:1006600009F0C6C09E892F89188D91110CC0803861
:1006700029F4809189018093F10002C01092F10069
:100680001092F10042C1422F50E0512B913051F4B1
:1006900081113BC14130510509F037C18091890179
:1006A0008D7F0BC0933061F481112FC14130510512
:1006B00009F02BC18091890182608093890125C155
:1006C000953041F48091E80080FFFCCF20682093B2
:1006D000E3001BC1963009F05FC0EB8CFC8C1092DC
:1006E000E9001092830110928201123091F510926C
:1006F0008101109280010E94920199E0BE016F5F1A
:100700007F4FDB01E92F1D92EA95E9F799831A8360
:1007100091E09E8390EA98879AEF998720918201D1
:1007200030918301275F3F4F3C832B838D83109251
:10073000E9001092830110928201F0928101E0920F
:10074000800149E050E080E00E948D080E94920103
:10075000DCC0F0928101E09280010E94E909DC0195
:100760001296ED90FC901397E114F10409F4BAC0CD
:10077000D701ED91FC910480F581E02DBE016B5E07
:100780007F4FC7010995009719F00CF0BEC0C1C09A
:10079000F701E084F184E8CF973009F4BAC09830CB
:1007A00021F481E08093F100B0C0993009F0ADC030
:1007B000837009F0AEC0E1E0F1E081E021E036E3D2
:1007C0009081992361F08093E9002093EB0091914F
:1007D0009093EC003093ED008F5F873089F78EE7C0
:1007E0008093EA001092EA008F89809387018DC080
:1007F0008B8D9C8D1092E9001092830110928201E2
:100800009093810180938001898D811150C08E89E0
:100810009D89913A59F4813209F07BC047E050E05C
:100820006BE071E080E00E948D086FC0913209F0AA
:1008300070C0833289F4888D90E0982F88272F89A3
:10084000822BA0E0B0E08093070190930801A09371
:100850000901B0930A0159C0803239F467E070E0B1
:100860008BE091E00E94C40206C0823209F04DC0C4
:100870008F898093120180918801882319F0EEEF0F
:10088000FAE002C0E0E0F8E080910B0190910C01E9
:10089000A0910D01B0910E01803B9440A105B105DE
:1008A00009F07BC08091120180FF93C076C00E9446
:1008B000E909DC0112960D911C91139701151105A0
:1008C00041F1D801ED91FC910190F081E02DBE0144
:1008D0006B5E7F4FC8010995811117C0F801008533
:1008E0001185ECCF113009F44EC0133091F48F898B
:1008F000882309F445C0823081F440E860E180E15A
:1009000091E00E945008882321F08EEF8093E80048
:1009100079C081E28093EB0075C0813029F440E812
:100920006BE084E091E0EDCF833099F70E94E90914
:10093000DC011296ED90FC9013978E010F5F1F4F14
:100940006801E114F10479F0D701ED91FC91068082
:10095000F781E02DB801C7010995080F111DF701B6
:10096000E084F184EECFD8011C92F60101900020C2
:10097000E9F73197BF016C197D0940E0C601C1CF8D
:100980006EEE70E002C062EF70E06115710509F271
:10099000FB01449150E080E846CF0FB6F894A8954B
:1009A00080916000886180936000109260000FBEAB
:1009B000A895EE3F2AE0F20739F08091FE0A909167
:1009C000FF0A91838083A1CF1092FF0A1092FE0A42
:1009D0009CCFEE3F8AE0F80731F0808191819093BF
:1009E000FF0A8093FE0A87E797E7918380839BE065
:1009F00088E10FB6F894A895809360000FBE90939D
:100A0000600083CF6C960FB6F894DEBF0FBECDBFEB
:100A1000DF91CF91FF91EF91BF91AF919F918F9116
:100A20007F916F915F914F913F912F911F910F9106
:100A3000FF90EF90DF90CF900F900FBE0F901F9020
:100A4000189540918201509183012091800130914D
:100A5000810142175307B4F49091E8009570E1F3D7
:100A60009091E80092FD19C08093F100809182017D
:100A70009091830101968F739927892B19F48EEF3A
:100A80008093E80080918201909183010196909378
:100A900083018093820181E0089580E008952FB75B
:100AA000F89487708093E9009091E800892F807214
:100AB00095FF04C09091F20080E4891B2FBF089538
:100AC000CF92DF92EF92FF920F931F93CF93DF931A
:100AD0006C017A018B01C0E0D0E0CE15DF0589F012
:100AE000D8016D918D01D601ED91FC910190F081BD
:100AF000E02DC6010995892B11F47E0102C02196D3
:100B0000ECCFC701DF91CF911F910F91FF90EF9034
:100B1000DF90CF900895CF93DF931F92CDB7DEB7CC
:100B20006983DC01ED91FC910280F381E02D41E0CD
:100B300050E0BE016F5F7F4F09950F90DF91CF911D
:100B4000089583E08093E9008091F200882319F0F2
:100B50008AE38093E800089583E00E944F0590E0C7
:100B60000895FC018485958597FD0BC09FB7F89487
:100B700082E08093E9008091F2009FBF90E00196AF
:100B800008959FB7F89482E08093E9008091F20085
:100B90009FBF90E00895DC01FB0112968C911297A3
:100BA00090E02481358182179307D1F4918180816F
:100BB000813A31F481E0913091F0933089F411C0A1
:100BC000813271F49B3021F482811F968C9305C091
:100BD0009A3031F4828150968C9381E00895089583
:100BE00080E00895DC01FB0188E4808389E481834F
:100BF00084E482831D969C911D979F709F5B9383D5
:100C00001D968D919C911E9724E0969587952A9527
:100C1000E1F78F708F5B848385E00895CF93DF9336
:100C20001F92CDB7DEB76983DC01ED91FC9102889C
:100C3000F389E02D41E050E0BE016F5F7F4F0995E1
:100C40000F90DF91CF9108950A970C940E060895A6
:100C50000895DC015B968D919C915C97181619069E
:100C60007CF45996ED91FC915A97E81BF90B5D962F
:100C70008D919C915E97E80FF91F808190E0089517
:100C80008FEF9FEF08950A970C942906FC01818944
:100C9000928997FF02C080E090E00895FC01838D67
:100CA000948D97FF02C080E090E00895FC0182815E
:100CB0008F5BFB01808381E00895FC0134969C01E9
:100CC000245F3F4F80E090E04081411101961192F6
:100CD000E217F307C9F70895FC0120E2260F283038
:100CE000F0F0DC01169620E030E08D91442349F0CD
:100CF000861304C0E20FF31F668326C0811107C06C
:100D0000F9CF861304C0E20FF31F16821DC02F5FB8
:100D10003F4F2630310549F780E090E00895348157
:100D2000442349F081E090E001C0880F2A95EAF75A
:100D3000832B848309C041E050E001C0440F2A9511
:100D4000EAF740954323448381E090E008950895B5
:100D500080E090E00895DC015B968D919C915C971A
:100D600018161906B4F45D962D913C915E9759962C
:100D7000ED91FC915A97AC01415051095C965C93FE
:100D80004E935B97E81BF90BE20FF31F808190E015
:100D900008958FEF9FEF08950A970C94AB067F920A
:100DA0008F929F92AF92BF92CF92DF92EF92FF927B
:100DB0000F931F93CF93DF93C82E8B017A018091FD
:100DC0008701811103C08FEF9FEF71C08091850172
:100DD00080FF05C08091E00082608093E000CE2D0E
:100DE000DF2DD12C8AEF882E8C2D8770B82E8C2D7C
:100DF0008072A82E8C2D8074982E9AE3792E2097DD
:100E000009F44EC08C2D0E944F05282F811106C079
:100E10008A948820C1F20E94C401F1CF90E0C817E3
:100E2000D9070CF42C2F3FB7F894B092E9008091C9
:100E3000E80085FF33C0822F90E0C81BD90BAA20A1
:100E400029F02150A8F01092F100FBCFF801C7FE65
:100E500007C0215058F044914093F1003196F9CFEA
:100E6000215020F041914093F100FACF080F191F53
:100E7000DD2019F07092E8000AC08091E80085FD3D
:100E800008C07092E800DD24D394209739F0D12C6B
:100E900005C0209719F491107092E8003FBFAFCFC2
:100EA000D110B0CF5D9884E680938401C701DF91B3
:100EB000CF911F910F91FF90EF90DF90CF90BF9057
:100EC000AF909F908F907F900895CF93DF93EC0128
:100ED00080911201882331F083E00E94CF0618161A
:100EE000190634F081E090E09B838A8380E090E0F3
:100EF000DF91CF910895AF92BF92CF92DF92EF92A0
:100F0000FF920F931F93CF93DF931F92CDB7DEB75E
:100F10007C0169836A01590141E050E0BE016F5FC5
:100F20007F4FFC0183810E94CF068C0197FD0BC08F
:100F3000F7018381A501B60180640E94CF0697FD69
:100F400002C0800F911F0F90DF91CF911F910F91E1
:100F5000FF90EF90DF90CF90BF90AF900895FC018D
:100F6000838180640C94CF060F931F93CF93DF93FC
:100F70001F92CDB7DEB78C01FC018485958597FF64
:100F80000EC0CE0101960E94DE01019719F429815D
:100F900030E002C02FEF3FEFF80135872487F801DA
:100FA000848595850F90DF91CF911F910F910895C2
:100FB000CF93DF931F92CDB7DEB7FC018485958573
:100FC00097FD05C02FEF3FEF358724870BC0CE017B
:100FD00001960E94DE01019719F4898190E002C018
:100FE0008FEF9FEF0F90DF91CF9108950F931F9395
:100FF000CF93DF93EC01FB018A8190E0248135815E
:101000008217930709F046C091818081813A39F4B3
:1010100081E0913009F43FC09330E1F53CC081326A
:10102000C9F59B3019F482818F8B32C09A3019F444
:101030008281888F2DC0993069F50681178183815F
:10104000833081F489A19AA10817190719F5B8010D
:101050008F8D98A10E94C40289A19AA190689AA339
:1010600089A316C08230B1F48B8D9C8D892B91F4AD
:10107000898D9A8D801791076CF0801B910B2D8DB7
:101080003E8DB801820F931F0E94C4021C8F0B8FEC
:1010900081E001C080E0DF91CF911F910F91089511
:1010A000CF92DF92EF92FF920F931F93CF93DF9334
:1010B0001F92CDB7DEB7182F062FE42E862F880F8C
:1010C0008E5F99830E94210583E00E942105F12E05
:1010D000C12E9981D92E8C2D8F19801798F4F60185
:1010E000E7FE02C0849101C080810E942105182F73
:1010F00080E00E9421058123FFEFCF1ADF0A8111D2
:10110000EACF01C081E00F90DF91CF911F910F9145
:10111000FF90EF90DF90CF900895DF92EF92FF92D3
:101120000F931F93CF93DF93D82E8A017B01E40E98
:10113000F51EEB01CE15DF0571F0D7FE03C0FE01F1
:10114000849101C088810E94210521968111F2CFEE
:101150008FEF9FEF01C0C801DF91CF911F910F91D9
:10116000FF90EF90DF900895EF92FF920F931F93FF
:10117000CF93DF93FB012081213851F52381223267
:1011800039F5DC0112962C9130E0448155814217EB
:101190005307F1F4EC010B851C85E12CF12C0115B2
:1011A000110591F0F801448155816281738180E8D5
:1011B0000E948D088F3FFFEF9F0769F0E80EF91E30
:1011C000D8010D911C91EBCF81E08F87C70105C03D
:1011D00080E090E002C08FEF9FEFDF91CF911F91F1
:1011E0000F91FF90EF900895CF93DF93CDB7DEB7C7
:1011F00069970FB6F894DEBF0FBECDBFFC01DB01CF
:101200008C918F5F8C93BE016F5F7F4F89E1DB0113
:101210001D928A95E9F729E0298384E08A8391E089
:101220009D8383E08E832A8721E22B879C879D877D
:101230009F8722E2288B27E02B8B25E02C8B8E8B3F
:1012400020E430E0388F2F8B998F82818B839585B6
:101250008685998B8A8B838180688D8B49E150E0EC
:1012600080E00E948D0869960FB6F894DEBF0FBE2D
:10127000CDBFDF91CF910895FB0120812138B9F4D2
:1012800023812232A1F4DC0112962C91129730E0D6
:10129000448155814217530751F421E057962C930E
:1012A0004CE150E067E072E080E80C948D0880E04B
:1012B00090E00895CF93DF93CDB7DEB769970FB66F
:1012C000F894DEBF0FBECDBFFC01DB019C919F5F98
:1012D0009C93BE016F5F7F4F89E1DB011D928A9570
:1012E000E9F729E0298384E08A8391E09D8383E004
:1012F0008E832A8721E22B879C879D879F8722E206
:10130000288B2CE1298B27E02B8B25E02C8B8E8BD7
:1013100020E430E0388F2F8B998F82818B838381FB
:1013200080688D8B49E150E080E00E948D086996CD
:101330000FB6F894DEBF0FBECDBFDF91CF910895F9
:10134000615030F02091F100FC0120830196F8CF2C
:10135000289884E6809386010895CF93DF93FC015B
:10136000DB01C281D381209719F47383628308C0A3
:1013700088859985009711F0EC01FACFB987A88785
:10138000808112968C931297818113968C93139778
:10139000908115968C911597890F808380E0149623
:1013A0009C911497891788F41696CD91DC91179724
:1013B000C80FD11D9881C181D0E0C050DF4F988304
:1013C00091819F5F91838F5FEACF81E0DF91CF9121
:1013D00008958091E20381110DC082E08093DE03C5
:1013E00084E08093DF031092E1031092E00381E038
:1013F0008093E2038EED93E008958091D6038111EE
:1014000037C081E08093C9038093CA032FEC33E097
:101410003093CC032093CB031092CE031092CD03D4
:1014200027E731E03093C6032093C5031092D10320
:101430001092D0031092D3031092D2038093D4035E
:101440008093D50381EC8093CF030E94E909FC01CE
:1014500041812091C90330E0240F311D283031052E
:1014600024F465EC73E00E94AD0981E08093D6031B
:1014700085EC93E008950F931F93CF93DF93EB01D7
:101480008A010E94FD099801AE0161E0DF91CF91D0
:101490001F910F910C947B07CF93DF93EC010E9477
:1014A000FD09AE014C5F5F4F28E030E062E0DF9164
:1014B000CF910C947B07EF92FF920F931F93CF93E2
:1014C000DF93E62FF0E0E038F10540F021E030E076
:1014D000DC0113963C932E93129722C0D42F7C01EB
:1014E000E957FE4FC491DC01ED91FC916C2F6F77B1
:1014F0000484F585E02D09958C01C7FF13C0892B65
:1015000011F4D1110DC0D701ED91FC910484F58542
:10151000E02D4D2F61EEC7010995802B912B02C064
:1015200080E090E0DF91CF911F910F91FF90EF90BD
:1015300008950F931F93CF93DF93EC0140E00E9437
:101540005B0A8C01892B39F0E881F9810284F385EB
:10155000E02DCE010995C801DF91CF911F910F9128
:101560000895FF920F931F93CF93DF93EC01F62E14
:1015700041E00E945B0A8C01892B59F0E881F981D6
:101580000284F385E02DCE0109956F2DCE010E94D6
:10159000990AC801DF91CF911F910F91FF90089593
:1015A00010922A031092290348EE53E060E070E0A5
:1015B00040932B0350932C0360932D0370932E03C1
:1015C00087E191E090932803809327038FEF9FEFAB
:1015D000909334038093330381E080937B03809363
:1015E0007C032DE833E030937E0320937D0310923B
:1015F000800310927F031092840310928303409320
:10160000850350938603609387037093880329E2D0
:1016100031E0309378032093770321E431E0309375
:1016200082032093810380938E0380938F03109213
:1016300091031092900310929303109292031092D0
:10164000970310929603109299031092980381ECDD
:1016500080938D030E94E909FC01418120917B0365
:1016600030E0240F311D2830310524F467E773E0A2
:101670000E94AD091092AA038FE591E09093A9030F
:101680008093A8038091A003811113C010929B0343
:1016900010929A0381E291E090939D0380939C03C2
:1016A0008BE290E090939F0380939E0381E0809370
:1016B000A0030E94FD09FC01A385B485109729F4BD
:1016C0008AE993E0948783870BC08D919C91119751
:1016D000009711F0DC01F9CF8AE993E08D939C9398
:1016E0002585368580919E0390919F03820F931FDD
:1016F000968785871092BC031092BB0385E691E024
:101700009093BA038093B9038091B103811113C000
:101710001092AC031092AB038CE491E09093AE0373
:101720008093AD038BE390E09093B0038093AF037D
:1017300081E08093B1030E94FD09FC01A385B4857B
:10174000109729F48BEA93E0948783870BC08D91DF
:101750009C911197009711F0DC01F9CF8BEA93E08F
:101760008D939C93258536858091AF039091B0032E
:10177000820F931F968785870895789484B5826039
:1017800084BD84B5816084BD85B5826085BD85B525
:10179000816085BD80916E00816080936E001092A3
:1017A000810080918100826080938100809181001E
:1017B00081608093810080918000816080938000AF
:1017C000809191008260809391008091910081606E
:1017D000809391008091900081608093900080912F
:1017E000C10084608093C1008091C10082608093B9
:1017F000C1008091C10081608093C1008091C300CD
:1018000081608093C3008091C00082608093C0009B
:101810008091C20081608093C20080917A008460D0
:1018200080937A0080917A00826080937A00809120
:101830007A00816080937A0080917A00806880933A
:101840007A0010928701109289011092850180918F
:10185000D70081608093D70080EA8093D80089B553
:10186000806189BD89B5826089BD09B400FEFDCF64
:101870000E94C4018091D8008F7C80618093D80041
:101880008091E000807F8093E0008091E1008E7E77
:101890008093E1008DE08093E200559A209AEEEF6C
:1018A000FFE7859194918B3F9C4D19F481E08093E3
:1018B00088018FEF9FEF90933403809333038DE97A
:1018C00091E090939503809394038FEF90E0909331
:1018D0009103809390031092930310929203E091EE
:1018E000B903F091BA030084F185E02D89EB93E010
:1018F0000995E091B903F091BA030284F385E02DD4
:1019000089EB93E009951092AA0340E060E080E043
:101910000E943D0184E28093970188EE93E0A0E06D
:10192000B0E08093980190939901A0939A01B093AD
:101930009B0181E080939C018DE0F82E96E0E92EDA
:10194000C0E0D0E0809192039091930397FF02C092
:1019500080E090E090931D0380931C03892B09F491
:10196000E9C00CE912E087E793E00E94AB06F801BA
:1019700081938F01F3E00C311F07A9F7ECE9F2E046
:10198000AAE8B1E08F2D01900D928A95E1F7809140
:101990008A01823009F48BC0803F09F4BAC08130DB
:1019A00009F0C8C080918F0190919001A0919101A0
:1019B000B09192010497A105B10519F580918B01B1
:1019C00090918C01A0918D01B0918E018130910593
:1019D000A105B10589F082309105A105B10541F05D
:1019E000892B8A2B8B2B69F48091AA03816007C015
:1019F0008091AA03846003C08091AA0382600E9440
:101A00005F0180918F0190919001A0919101B0911F
:101A100092010297A105B10519F580918B01909172
:101A20008C01A0918D01B0918E0181309105A105AD
:101A3000B10589F082309105A105B10541F0892BEE
:101A40008A2B8B2B69F48091AA038E7F07C080912B
:101A5000AA038B7F03C08091AA038D7F0E945F0140
:101A600080918F0190919001A0919101B09192018C
:101A70000897A105B10531F440918B0160E080E049
:101A80000E943D0180918F0190919001A091910160
:101A9000B09192014097A105B10509F04BC040E01B
:101AA0006091930180918B010E943D0143C0809120
:101AB0008F0190919001A0919101B09192010497B2
:101AC000A105B10599F441E060918B0189EB93E0A8
:101AD0000E945B0A892B51F0E091B903F091BA039F
:101AE0000284F385E02D89EB93E0099580918F01C5
:101AF00090919001A0919101B09192010297A1055E
:101B0000B105C1F460918B0189EB93E00E94990AC1
:101B100011C0E7E9F1E0ACE9B2E08E2D01900D9241
:101B20008A95E1F740E850E06CE972E087E793E0DE
:101B30000E94AF07209709F405CF0E94000002CF52
:101B4000EE0FFF1F0590F491E02D099481E090E0E5
:0A1B5000F8940C94AB0DF894FFCF4D
:101B5A0000C18081000000FFFFFFFF00E1000000DC
:101B6A00000000000000008B056507AC05A105B167
:101B7A0005D807B40700000000F6075A093C0956C1
:101B8A00064E06AB06290628060E06AF07F6FF0024
:101B9A000024066005A80627064606CC064306006A
:101BAA000000009001900190015606000000003BE1
:101BBA000A00000000B10A6005A806A7065D064CE7
:101BCA000A6C0600000000CB05F408B408F2050010
:2070000055C000006EC000006CC000006AC0000068C0000066C0000064C0000062C0000043
:2070200060C000005EC00000F2C400005AC0000058C0000056C0000054C0000052C00000EE
:2070400050C0000078C000004CC000004AC0000048C0000046C0000044C0000042C00000BE
:2070600040C000003EC000003CC000003AC0000038C0000036C0000034C0000032C0000048
:2070800030C000002EC000002CC000002AC0000028C0000026C0000024C0000022C00000A8
:2070A00020C000001EC000001CC0000011241FBECFEFDAE0DEBFCDBF11E0A0E0B1E0E2E3BC
:2070C000FFE702C005900D92A83AB107D9F711E0A8EAB1E001C01D92AE3BB107E1F78FD30B
:2070E00026C78ECFF89410926F0010928100109285001092840081E085BF15BE47985D9AEB
:20710000289A0C94000008952091B2013091B3012F5F3F4F3093B3012093B201932F37FFA6
:2071200003C08EEF831B982F990F921710F447980895479A08951F920F920FB60F9211246E
:207140002F938F939F93EF93FF9310928500109284008091A8019091A901009741F00197D3
:207160009093A9018093A801892B09F45D9A8091AA019091AB01009741F001979093AB0126
:207180008093AA01892B09F4289AE0E0F0E0859194918F5F9F4F49F08091AC019091AD0151
:2071A00001969093AD018093AC01FF91EF919F918F912F910F900FBE0F901F90189584E0BC
:2071C0008093E9000DC08091E8008B778093E80003C08EB3882351F08091E80082FFF9CFBE
:2071E0008091E80085FFEFCF8091F1000895982F83E08093E9008091E80085FD0DC0809136
:20720000E8008E778093E80003C08EB3882369F08091E80080FFF9CF9093F1005D9884E6CB
:2072200090E09093A9018093A80108954F925F926F927F928F929F92AF92BF92CF92DF921E
:20724000EF92FF920F931F93CF93DF9384E08093E9008091E80082FF57C2289884E690E067
:207260009093AB018093AA01AADF182F853481F48CE49DE19093AD018093AC0107B600FC4B
:20728000FDCFF999FECF81E180935700E89503C0843519F494DF8DE00DC28C34E1F38035F9
:2072A000D1F3843721F484E4A2DF80E003C2813611F489E5FFC18134B1F481DF182F7FDFE3
:2072C00090E0880F991FAA2797FDA095BA2F312F330F20E0442737FD4095542F822B932B68
:2072E000A42BB52BB8C1803711F483E5E3C1833549F4C0E0D1E089917ADF21E0C730D20714
:20730000D1F7D9C1863521F481E371DF80E3D2C1833731F487E86BDF85E969DF8EE1CAC149
:207320008536B9F4E0E0F0E093E085E090935700E89507B600FCFDCF80935700E89507B65D
:2073400000FCFDCFE058FF4FA0E7E030FA0771F7A2CF823739F4E1E0F0E089E08093570024
:207360008491A8C1863439F4E0E0F0E089E08093570084919FC18E3439F4E3E0F0E089E0E5
:2073800080935700849196C1813539F4E2E0F0E089E08093570084918DC1823631F489E521
:2073A00026DF80E024DF80E885C1823419F0873609F0E5C01092AD011092AC0100DF082FE8
:2073C000FEDEF82EFCDE682E8554823008F071C1902F80E0CF2DD0E0C82BD92B10926F00B3
:2073E000173609F04BC081E180935700E895DD24CC24C3943FC0E090AE01F090AF010091CC
:20740000B0011091B101B6E46B16D9F4ED2DF0E0EE29FF29E4918E2FEADEDD2081F082E08D
:2074200090E0A0E0B0E0E80EF91E0A1F1B1FE092AE01F092AF010093B0011093B101DC2470
:2074400018C0D801C701B695A7959795879559D5CEDE82E090E0A0E0B0E0E80EF91E0A1FF2
:207460001B1FE092AE01F092AF010093B0011093B1012197209709F0BECF7DC08090AE01F5
:207480009090AF01A090B001B090B10196E4691609F05DC083E0F40180935700E89507B63E
:2074A00000FCFDCF54C0F6E46F1661F5772031F1E090AE01F090AF010091B0011091B1019E
:2074C0007EDED82ECC24852D90E08C299D29F7010C0140925700E895112482E090E0A0E08B
:2074E000B0E0E80EF91E0A1F1B1FE092AE01F092AF010093B0011093B10102C060DE582E1A
:20750000742423C0E090AE01F090AF010091B0011091B10116950795F794E79450DE682FFA
:20752000C701F7D48091AE019091AF01A091B001B091B1010296A11DB11D8093AE01909349
:20754000AF01A093B001B093B101219704C05524772444244394209709F0A5CF96E46916B6
:2075600041F485E0F40180935700E89507B600FCFDCF8DE03CDE82E080936F009CC0833492
:2075800071F40091AE011091AF0119DE90E021E0F8010C0120935700E89511247CCE8336C8
:2075A00019F5E090AE01F090AF010091B0011091B10105DEF701E16090E021E00C0120938C
:2075C0005700E895112482E090E0A0E0B0E0E80EF91E0A1F1B1FE092AE01F092AF0100936A
:2075E000B0011093B10157CE8D3661F4E091AE01F091AF0185E080935700E89507B600FCF2
:20760000FDCF49CE823551F4E091AE01F091AF0105911491812FEBDD802F4CC0843421F5FE
:20762000E090AE01F090AF010091B0011091B10116950795F794E794C2DD682FC70169D4DE
:207640008091AE019091AF01A091B001B091B1010296A11DB11D8093AE019093AF01A093D8
:20766000B001B093B10117CE843609F5E090AE01F090AF010091B0011091B101D801C70142
:20768000B695A795979587953CD4B1DD82E090E0A0E0B0E0E80EF91E0A1F1B1FE092AE010A
:2076A000F092AF010093B0011093B10104C08B3111F08FE39CDD83E08093E9009091E8002B
:2076C0008091E8008E778093E80095FF04C010C08EB38823C9F08091E80080FFF9CF809193
:2076E000E8008E778093E80003C08EB3882361F08091E80080FFF9CF84E08093E9008091F1
:20770000E8008B778093E800DF91CF911F910F91FF90EF90DF90CF90BF90AF909F908F90AC
:207720007F906F905F904F9008959091B601892F8F77813249F58091B7018032A1F081328A
:2077400019F5913A09F58091E800877F8093E8008DE091E067E070E00BD28091E8008B770B
:207760008093E8000895913279F48091E800877F8093E8008DE091E067E070E05DD2809192
:20778000E8008E778093E800089582E061EC42E0B5D083E061E842E1B1D084E060E842E1EF
:2077A000ADC084B7877F84BF88E10FB6F89480936000109260000FBE20E880E090E00FB63F
:2077C000F89420936100809361000FBE81E085BF92E095BF3F9A209A559AE1E6F0E02083A1
:2077E000108247985D9A289A109289008AEF8093880090936F0083E080938100F0C0409116
:20780000000850910108109201081092000894B714BE88E10FB6F8948093600010926000D5
:207820000FBE292F30E0F901E270F07091FD18C090FF05C0859194918F5F9F4F81F423FFFF
:207840000FC08091090190910A014817590741F0E0E0F0E0859194918F5F9F4F09F042DC64
:20786000A0DF78941092AD011092AC010CC0DEDC36D38091AC019091AD0181549F4110F00D
:207880001092140141DC80911401882381F78091E00081608093E00025DC80E090E0089598
:2078A000FA01923049F0933061F09130F9F485E191E022E130E01EC087E291E02EE330E04D
:2078C00019C0882329F485E691E024E030E012C0813029F489E691E022E230E00BC0823006
:2078E00029F48DE891E028E130E004C080E090E020E030E091838083C90108958093E9004E
:207900008091EB0081608093EB001092ED006093EC004093ED008091EE00881F8827881F62
:2079200008958091B60188238CF403C08EB38823B1F08091E80082FFF9CF8091E8008B772A
:207940008093E80008958EB3882349F08091E80080FFF9CF8091E8008E778093E800089594
:20796000EF92FF920F931F9345D04CD008ED10E0F80180818F77808380818068808380819B
:207980008F7D808319BC1EBA1092B40180EEE82EF12CF70180818B7F8083F8018081816052
:2079A000808380E060E042E0A9DFE1EEF0E080818E7F8083E2EEF0E0808181608083808144
:2079C00088608083F70180818E7F8083F8018081806180831F910F91FF90EF900895E7ED06
:2079E000F0E08081816080838AE482BF81E08093B501B6CFE8EDF0E080818E7F808310921C
:207A0000E20008951092DA001092E10008951F920F920FB60F9211242F933F934F935F93F6
:207A20006F937F938F939F93AF93BF93EF93FF938091DA0080FF1BC08091D80080FF17C0B2
:207A40008091DA008E7F8093DA008091D90080FF0BC080E189BD82E189BD09B400FEFDCF36
:207A600081E08EBB3BD203C019BC1EBA37D28091E10080FF17C08091E20080FF13C0809138
:207A8000E2008E7F8093E2008091E20080618093E2008091D80080628093D80019BC85E049
:207AA0008EBB1CD28091E10084FF2CC08091E20084FF28C080E189BD82E189BD09B400FEC5
:207AC000FDCF8091D8008F7D8093D8008091E1008F7E8093E1008091E2008F7E8093E20012
:207AE0008091E20081608093E2008091B401882331F48091E30087FD02C081E001C084E067
:207B00008EBBECD18091E10083FF21C08091E20083FF1DC08091E100877F8093E10082E06A
:207B20008EBB1092B4018091E1008E7F8093E1008091E2008E7F8093E2008091E2008061E9
:207B40008093E20080E060E042E0D8DEC7D1FF91EF91BF91AF919F918F917F916F915F9130
:207B60004F913F912F910F900FBE0F901F9018959C014091BC015091BD014617570718F49D
:207B8000F90190E044C06115710511F0AB01F8CF8091E8008E778093E80040E050E0F0CF0F
:207BA0008EB3882309F444C0853009F443C08091E80083FF02C081E008958091E80082FD70
:207BC00031C08091E80080FF22C08091F3009091F200782F60E0292F30E0262B372B07C07A
:207BE00081918093F100415050402F5F3F4F4115510519F02830310598F390E02830310566
:207C000009F491E08091E8008E778093E8004115510531F6992321F605C08EB3882341F075
:207C2000853041F08091E80082FFF7CF80E0089582E0089583E008959C016115710529F47C
:207C40008091E8008B778093E800F90126C08EB3882391F1853091F18091E80083FF02C06C
:207C600081E008958091E80082FFF1CF06C08091F10081936150704059F02091F300809191
:207C8000F200322F20E090E0822B932B892B79F78091E8008B778093E80061157105B9F601
:207CA00005C08EB3882341F0853041F08091E80080FFF7CF80E0089582E0089583E00895C2
:207CC0000F931F93DF93CF9300D0CDB7DEB7E6EBF1E08091F100819381E0EE3BF807C9F792
:207CE00024DD8091E80083FFE4C08091B6019091B701953009F46DC0963040F4913081F1A7
:207D0000913070F0933009F0D4C02AC0983009F4A3C0993009F4B2C0963009F0CAC07CC023
:207D2000803809F4C6C0823809F0C3C08091BA0187708093E9008091EB001092E9002091DB
:207D4000E800277F2093E80090E025E0969587952A95E1F781708093F1001092F10087C0D8
:207D6000882319F0823009F0A4C08F71823009F0A0C08091B801882331F52091BA01277097
:207D800009F497C02093E9008091EB0080FF1BC0933021F48091EB00806213C08091EB0018
:207DA00080618093EB0081E090E002C0880F991F2A95E2F78093EA001092EA008091EB00E5
:207DC00088608093EB001092E9008091E800877F51C0882309F06DC01091B8011F770FB79B
:207DE000F8948091E800877F8093E8009ADD8091E80080FFFCCF8091E3008078812B809398
:207E0000E30080688093E300112311F482E001C083E08EBB0FBF4DC08058823008F049C033
:207E20008091B8019091B9016091BA01AE014F5F5F4F36DDBC01009709F43BC08091E8008E
:207E4000877F8093E80089819A8192DE8091E8008B778093E8002DC0803859F58091E800AA
:207E6000877F8093E8008091B4018093F1008091E8008E778093E80054DD1BC08823C9F4CA
:207E80009091B8019230A8F48091E800877F8093E8009093B40145DD8091B401882331F420
:207EA0008091E30087FD02C081E001C084E08EBB6CDC8091E80083FF0AC08091EB0080624E
:207EC0008093EB008091E800877F8093E8000F900F90CF91DF911F910F91089508951F9360
:207EE0008EB3882361F01091E9001092E9008091E80083FF01C0E4DE17701093E9001F916F
:207F00000895F999FECF92BD81BDF89A992780B50895262FF999FECF1FBA92BD81BD20BDBD
:207F20000FB6F894FA9AF99A0FBE01960895F894FFCF4341544552494E4100777700080031
:207F40000000000000080112011001020000084123360001000201000109023E00020100FF
:207F600080320904000001020201000524001001042402040524060001070582030800FF0C
:207F800009040100020A000000070504021000010705830210000104030904220341007216
:207FA000006400750069006E006F0020004C0065006F006E006100720064006F0000001836
:1A7FC00003410072006400750069006E006F0020004C004C004300000000D7
:00000001FF
